:1008E70074616E6B20697320656D707479006D6F2C
:1008F700746F72206973206F6E0074616E6B20666F
:10090700696C6C696E670074616E6B206973206D2A
:1009170069640074616E6B2069732066756C6C0086
:100927006D6F746F72206973206F66660074616EF5
:100937006B203220656D7074790066696C6C207469
:06094700616E6B2032001E
:10080000C2B0E4F580F5A0D290D291D292D2937F7B
:10081000381209D57F0C1209D57F061209D57F0140
:100820001209D53093030208BD309218309115306B
:1008300090121209D17F801209D57BFF7A0879E7DF
:100840007D0D80342092183091153090121209D10C
:100850007F801209D57BFF7A0979017D0C801920F0
:1008600092282091253090221209D17F801209D53B
:100870007BFF7A09790E7D0B12094D7FC01209D5D5
:100880007BFF7A0879F57D0B802D2090962091933F
:10089000209290C2B07F011209D57F801209D57BCA
:1008A000FF7A09791A7D0C12094D7FC01209D57B98
:1008B000FF7A0979277D0C12094D020823C2B07F07
:1008C000011209D57F801209D57BFF7A0979347D21
:1008D0000C12094D7FC01209D57BFF7A0979417D41
:0708E0000B12094D02082371
:0409D100D2B07F0120
:0A09D5008FA0C2801209A9C282227D
:08094D008B088A09890A8D0B51
:10095500E4F50CE50CC3950B501CAB08AA09A90AD4
:10096500850C8275830012097CF5A0D2801209A935
:06097500C282050C80DDCA
:01097B002259
:0809A900C281D2827F057E00AD
:1009B100E4FDFCC3ED9FEC9E5015E4FBFA0BBB007C
:0F09C100010ABA04F8BBFBF50DBD00010C80E480
:0109D0002204
:030000000209DF13
:0C09DF00787FE4F6D8FD75810C0208005A
:10097C00BB010CE58229F582E5833AF583E0225030
:10098C0006E92582F8E622BBFE06E92582F8E2227A
:0D099C00E58229F582E5833AF583E4932294
:00000001FF
